:020000040800F2
:10000000C008002015110008DD030008DF03000808
:10001000E3030008E7030008EB030008000000000A
:10002000000000000000000000000000EF030008D6
:10003000F103000800000000F3030008F5030008C6
:100040002F1100082F1100082F1100082F11000890
:100050002F1100082F1100082F1100082F11000880
:100060002F1100082F1100082F1100082F11000870
:100070002F1100082F1100082F1100082F11000860
:100080002F1100082F1100082F1100082F11000850
:100090002F1100082F1100082F1100082F11000840
:1000A0002F1100082F1100082F1100082F11000830
:1000B0002F110008330600082F1100082F11000827
:1000C0002F1100082F1100082F1100082F11000810
:1000D0002F1100083D0F00082F1100082F110008F4
:1000E0002F1100082F1100082F1100082F110008F0
:1000F0002F1100082F1100082F1100082F110008E0
:100100002F1100082F1100082F1100082F110008CF
:100110002F1100082F1100082F1100082F110008BF
:100120002F1100082F1100082F1100082F110008AF
:1001300000F002F800F03AF80AA090E8000C8244BF
:100140008344AAF10107DA4501D100F02FF8AFF29C
:10015000090EBAE80F0013F0010F18BFFB1A43F0A5
:1001600001031847D82C0000F82C0000103A24BFD7
:1001700078C878C1FAD8520724BF30C830C144BF0C
:1001800004680C607047000000230024002500264E
:10019000103A28BF78C1FBD8520728BF30C148BFEA
:1001A0000B6070471FB51FBD10B510BD02F0D6FC27
:1001B0001146FFF7F7FF00F009F802F0F4FC03B472
:1001C000FFF7F2FF03BC00F051FE000000F0E4FD79
:1001D0004FF4A06001F042FD4FF4E13000F054FE16
:1001E00000F08CFD00F03EFC002142F2273000F0D0
:1001F00079FC41F61F41312000F0EEF9D2E000F029
:100200004DFD0546684800884FF6FF71884200D1D1
:1002100000246548008800B901246448007801285A
:1002200004D1012C02D10220604908706048008886
:100230004FF6FF71884200D100265D48008800B962
:10024000012606EA040018B901205A49087002E0A4
:10025000002058490870012C3AD1574800780628E8
:1002600034D2DFE800F0030F131F232F5348007828
:10027000012803D103205249087002E001205049AF
:10028000087024E005204E49087020E04B480078B3
:10029000012803D102204A49087002E0042048499D
:1002A000087014E003204649087010E043480078C5
:1002B000012803D103204249087002E0012040498F
:1002C000087004E001203E49087000E000BF0BE028
:1002D00000213C4802F0FAFB00213A4802F0F8FB0A
:1002E0000021384802F0F6FB012D4DDB082D49D2E4
:1002F000DFE805F048042127344848422B480078BD
:10030000022806D101203049087002202F490870C8
:1003100010E02648007860B9012C03D1022023495F
:10032000087002E001202149087001202749087067
:1003300000E000BF27E00120254908701F49087030
:1003400021E08021234801F012F80121224801F028
:100350000EF80221204801F00AF814E04FF48071F1
:100360001C4801F004F801211B4801F000F80221AB
:10037000194800F0FEFF06E00220154908700F49F9
:10038000087000E000BF0CE04FF4C071114800F0AD
:10039000F0FF0121104800F0ECFF02210E4800F0B0
:1003A000E8FF00BF2BE70000040000200A00002047
:1003B0000200002001000020B30000200600002001
:1003C0000000002000080040080000200900002074
:1003D0000700002000100140000C0140704700BFE2
:1003E000FEE700BFFEE700BFFEE700BFFEE7704785
:1003F00070477047704700000CB5002001900090D6
:100400006C48006840F480306A49086000BF694861
:10041000006800F4003000900198401C01900098A2
:1004200018B90198B0F5A06FF1D16248006800F4E6
:10043000003010B10120009001E0002000900098F1
:10044000012843D15C48006840F010005A49086018
:100450000846006820F0030008600846006840F085
:1004600002000860534840685249486008464068A6
:1004700048600846406840F480604860084640682C
:1004800020F47C1048600846406840F4E81048605A
:100490000846006840F08070086000BF454800686A
:1004A00000F000700028F9D04248406820F00300B6
:1004B000404948600846406840F00200486000BF7C
:1004C0003C48406800F00C000828F9D10CBD10B57C
:1004D000FFF792FF10BD10B53648006840F00100EC
:1004E000344908600846406834490840314948604A
:1004F00008460068324908402E49086008460068EE
:1005000020F4802008600846406820F4FE0048601F
:100510004FF41F008860FFF7DAFF4FF000602949B1
:10052000086010BD10B5002100200022214B5B683F
:1005300003F00C0121B1042906D0082928D107E0D5
:10054000214B224C236027E01F4B204C236023E0EB
:10055000184B5B6803F47010164B5B6803F4803231
:10056000022303EB904022B9194B4343174C2360FD
:100570000DE0104B5B6803F4003323B1144B43438D
:10058000124C236003E0104B4343104C236003E004
:100590000D4B0E4C236000BF00BF064B5B68C3F3DE
:1005A00003130C4CE15C094B1B68CB40074C2360E8
:1005B00010BD000000100240002002400000FFF8C3
:1005C000FFFFF6FE08ED00E000127A000C000020AC
:1005D00000093D00100000207FB505460C460121B2
:1005E000022001F0E0F8ADF80850ADF8044000201A
:1005F000ADF80A00ADF8060001A9F74801F070FC5B
:1006000001221146F44801F0E2FF1D208DF80000A0
:1006100000208DF8010003208DF8020001208DF8E4
:100620000300684601F01FFB0121EB4801F0B4FF15
:100630007FBD2DE9F0410121E74802F076FA00285C
:100640007ED00121E44802F081FA00F0ABFAE348E1
:100650000088401CE1490880E1480088401CE049CE
:100660000880E0480088401CDE490880DB4800889C
:100670000A2866DB0020D9490880DB480078012879
:100680000CD10021D94802F021FA0021D74802F00C
:100690001FFA4FF4FA51D54802F01CFAD2480078FC
:1006A00002283AD10021D14802F010FA0021CF48A7
:1006B00002F010FACE480078B8B1CE480078401C5D
:1006C000CC490870CC48097830F811008004000C3F
:1006D000CA490880CA480078401EC649097888423D
:1006E00016D10020C249087012E0C2480078401EAE
:1006F000C0490870C048097830F811008004000C27
:10070000BE490880BB48007810B90120B84908707C
:10071000BA480188B54802F0DBF9B34800780328ED
:100720000DD14FF4AF51B14802F0D0F94FF4FA5166
:10073000AE4802F0CDF90021AC4802F0CBF901E05F
:1007400049E1C2E0A848007804287FD1AD4800788C
:1007500008B3AD480078401CAB490870A649AA4AC6
:10076000127831F8120002F058FA07464FF066325C
:10077000A64B02F065FA054602F022FAA449088069
:100780009F480078401EA0490978884220D1002067
:100790009C4908701CE09C480078401E9A490870EB
:1007A0009549994A127831F8120002F036FA074654
:1007B0004FF06632954B02F043FA054602F000FA1C
:1007C000934908809048007810B901208D4908703D
:1007D00090480078B8B190480078401C8E49087065
:1007E0008548097830F811008004000C834908809E
:1007F00083480078401E88490978884216D1002035
:100800008449087012E084480078401E82490870CC
:100810007948097830F811008004000C7749088085
:100820007D48007810B901207A490870784801881D
:100830006E4802F04BF9714801886C4802F048F9A3
:1008400000216A4800E001E002F044F966480078BF
:1008500005283AD10021654802F038F900216348A3
:1008600002F036F96D480078B8B16D480078401C48
:100870006B4908706048097830F811008004000C5A
:10088000684908805E480078401E654909788842BA
:1008900016D100206149087012E061480078401EBE
:1008A0005F4908705448097830F811008004000C42
:1008B0005C4908805A48007810B9012057490870EF
:1008C00058480188494802F005F9454800886428DD
:1008D00047DB55480088401C5349088000204049A8
:1008E00008805248007820B1012807D0022811D191
:1008F0000AE006214E4800F03AFD0CE000F02BFA29
:1009000000204A49087006E000F02BFA0020474911
:10091000087000E000BF00BF46480078A8B900207A
:10092000414908804448007820B1012805D00228B8
:1009300009D105E000F021FA06E000F024FA03E016
:1009400000F015FA00E000BF0BE0374800883C28B3
:1009500005D10020384908703649087001E000F0E0
:1009600012FA20480088142878DB00201D490880EE
:1009700032480078002822DD30480078012802D073
:1009800002281AD10CE0002404E02D49085D00F093
:10099000C7FA641C062CF8DB0020284908700DE01B
:1009A000002404E02749085D00F0BAFA641C062C14
:1009B000F8DB00202149087000E000BF00BF22489A
:1009C000007810B1012847D140E04FF40061184889
:1009D00000F0CFFC41E041E0000400408400002032
:1009E0008200002086000020000000200008004057
:1009F000790000207D0000202C00002074000020E1
:100A000070000020780000207C0000206666064010
:100A1000720000207A0000207E0000207B00002071
:100A20007F000020760000208800002009000020C0
:100A300000100140080000200A00002007000020EC
:100A40002000002026000020010000204FF400615B
:100A5000034800F08CFC00E000BF00BFBDE8F0815F
:100A60000010014008B50121182000F08FFE602021
:100A7000ADF8000004208DF803006946174800F027
:100A8000C9FB4FF4C070ADF8000010208DF80300D2
:100A900003208DF802006946104800F0BBFB0320DC
:100AA000ADF8000010208DF8030003208DF802003F
:100AB00069460B4800F0AEFB0420ADF800008DF84D
:100AC00003006946064800F0A5FB0121044800F038
:100AD00050FC0221024800F04CFC08BD001001400F
:100AE000000C014030B589B005460C4601210420B8
:100AF00000F059FE0121092000F048FE4FF460701B
:100B0000ADF8200018208DF8230003208DF8220076
:100B100008A9224800F07EFBADF81850ADF814404B
:100B20000020ADF81A00ADF8160005A91C4801F028
:100B3000D7F96020ADF804000120ADF806000020D0
:100B4000ADF80C0001A9164801F049FA01A91448B2
:100B500001F092FA01A9124801F0D9FA08211048CF
:100B600001F053FE08210E4801F05CFE08210C48FC
:100B700001F061FE01210A4801F00EFD0021084844
:100B800001F0A4FF0021064801F0A2FF4FF4FA6132
:100B9000034801F09FFF09B030BD0000000C014088
:100BA0000008004070B55048058801214F4800F00A
:100BB000C4FB65F35F004C490880084645884FF444
:100BC00000714A4800F0B9FB65F35F004649488070
:100BD000084685882021454800F0AFFB65F35F009B
:100BE000414988800846C5884021404800F0A5FB5F
:100BF00065F35F003C49C8803D48058808213B48B3
:100C000000F09BFB65F35F0039490880394805888F
:100C10004FF48061354800F090FB65F35F00354983
:100C20000880002437E00CB1012C1CD12E4830F88C
:100C300014004FF20F0108400F2803D102202E4963
:100C4000085526E0284830F814004FF20F010840FC
:100C5000B0F5704F03D103202749085519E0012052
:100C60002549085515E0204830F814004FF20F01CF
:100C7000084018B90020204908550AE01A4830F801
:100C800014004FF20F010840884202D101201A4996
:100C90000855601CC4B2042CC5DB70BD00200021C7
:100CA0001FE0154A525C012A19D029B9124A525C38
:100CB000032A14D1012012E001290BD10E4A525C03
:100CC000032A01D102200AE00B4A525C022A06D113
:100CD000072004E0084A525C0AB94A1CD0B24A1CF8
:100CE000D1B20429DDDB70479000002000100140E4
:100CF00004000020020000208A00002008B5012125
:100D0000102000F043FD0920ADF8000004208DF80C
:100D1000030069461F4800F07DFA40F61600ADF862
:100D2000000010208DF8030003208DF802006946B2
:100D3000184800F06FFA0621164800F018FB4FF42F
:100D4000C060ADF8000004208DF80300694611482A
:100D500000F060FA08BD10B502210E4800F009FB52
:100D600010BD10B504210B4800F003FB10BD10B5F9
:100D70001021084800F0FBFA10BD10B510210548FD
:100D800000F0F7FA10BD0348C06880F01000014978
:100D9000C86070470010014010B56FF0040000F00B
:100DA000ACFF2E4800682E49B0FBF1F02D490870C9
:100DB0000846007800EB4001C1EBC0104FF6FF7110
:100DC00001EAC0002849088010BD0146254A127872
:100DD0004A434FF0E0235A6100229A611A46126991
:100DE00042F001021A6100BF4FF0E022106900F0EA
:100DF00001021AB100F48032002AF5D04FF0E0224F
:100E0000126922F001024FF0E0231A6100229A6178
:100E100070470146144A12884A434FF0E0235A6152
:100E200000229A611A46126942F001021A6100BF5B
:100E30004FF0E022106900F001021AB100F4803294
:100E4000002AF5D04FF0E022126922F001024FF0A3
:100E5000E0231A6100229A61704700000C00002014
:100E600000127A009A0000209C00002000BF70470A
:100E700000BF9F4A128802F04002002AF9D0C2B295
:100E80009B4B1B1D1A80704710B586B0044601218C
:100E900044F2040000F07AFC4FF40070ADF8140046
:100EA00003208DF8160018208DF8170005A9914829
:100EB00000F0B0F94FF48060ADF8140004208DF814
:100EC000170005A98B4800F0A5F925208DF8000032
:100ED00003208DF801008DF8020001208DF8030039
:100EE000684600F0C0FE01940020ADF80800ADF89F
:100EF0000A00ADF80C00ADF810000C20ADF80E00A3
:100F000001A97B4800F0E9FC012240F22551784814
:100F100000F07BFD0121764800F06BFD06B010BDAE
:100F200010B504462146724800F0D0FD00BF4021B4
:100F30006F4800F039FE0128F9D110BD2DE9F041CC
:100F400040F225516A4800F045FE58B3684800F069
:100F5000C1FDC5B268480078F8B96848007805282E
:100F60000CD1674865490978455464490978405C63
:100F70001D2812D10120604908700EE060485F49C9
:100F8000097845545D480078401C5C490870084663
:100F90000078052801DD0020087040F225515448F2
:100FA00000F042FE54480078012870D15348007880
:100FB000401CC6B20020514908704F490870504883
:100FC00000781B28F1D10027002404E04C48005D84
:100FD000384487B2641CB01EA042F7DC4849085C64
:100FE000B8420FD10846407801280CD1002045496D
:100FF0000870002404E04449085DFFF791FF641C79
:10100000062CF8DB71E03E48407802280CD1012024
:101010003C490870002404E03B49085DFFF780FF6D
:10102000641C062CF8DB60E03548407803280CD1BE
:10103000022034490870002404E03349085DFFF7BA
:101040006FFF641C062CF8DB4FE02D484078042825
:101050000CD103202B490870002404E02A49085DC4
:10106000FFF75EFF641C062CF8DB3EE02448407866
:1010700005280DD1042023490870002404E02249EA
:10108000085DFFF74DFF641C062CF8DB2DE02DE01A
:101090001B48407806280CD105201A490870002406
:1010A00004E01949085DFFF73BFF641C062CF8DBE0
:1010B0001BE01348407809280ED11148C078112848
:1010C00003D10120114908700FE00D48C07860B9C4
:1010D00002200E49087008E0002404E00C49085D75
:1010E000FFF71EFF641C062CF8DB00BFBDE8F08193
:1010F0000038014000080140A6000020A4000020A4
:10110000CC000020B3000020AD00002080000020B3
:10111000A70000200948804709480047FEE7FEE78E
:10112000FEE7FEE7FEE7FEE7FEE7FEE7FEE7FEE797
:1011300004480549054A064B70470000D7040008DB
:1011400031010008C0020020C0080020C0040020B7
:10115000C004002010B50446CC48844208D10121C7
:10116000042000F02DFB0021042000F029FB46E0C4
:10117000C748844208D10121082000F021FB00214A
:10118000082000F01DFB3AE0C248844208D101214A
:10119000102000F015FB0021102000F011FB2EE0C4
:1011A000BD48844208D10121202000F009FB002124
:1011B000202000F005FB22E0B848844208D101213C
:1011C000402000F0FDFA0021402000F0F9FA16E07E
:1011D000B348844208D10121802000F0F1FA0021B7
:1011E000802000F0EDFA0AE0AE48844207D10121E8
:1011F000801500F0E5FA0021A01500F0E1FA10BD1D
:1012000010B50121084600F0DBFA0021012000F0B2
:10121000D7FA10BD2DE9F041024600250026002036
:1012200000230024002791F803C00CF00F0591F86B
:1012300003C00CF0100CBCF1000F03D091F802C0F9
:101240004CEA050591F800C0BCF1000F31D01468DC
:1012500000202BE04FF0010C0CFA00F3B1F800C0B5
:101260000CEA03069E4220D183004FF00F0C0CFACB
:1012700003F7BC4305FA03FC4CEA040491F803C0ED
:10128000BCF1280F06D14FF0010C0CFA00FCC2F89B
:1012900014C00AE091F803C0BCF1480F05D14FF02B
:1012A000010C0CFA00FCC2F810C0401C0828D1D375
:1012B0001460B1F800C0BCF1FF0F34DD54680020A9
:1012C0002EE000F1080C4FF0010808FA0CF3B1F819
:1012D00000C00CEA03069E4221D183004FF00F0CA0
:1012E0000CFA03F7BC4305FA03FC4CEA040491F83A
:1012F00003C0BCF1280F05D100F1080C08FA0CF866
:10130000C2F8148091F803C0BCF1480F07D100F176
:10131000080C4FF0010808FA0CF8C2F81080401CC5
:101320000828CED35460BDE8F0814FF6FF710180EC
:10133000022181700421C170704702460020936829
:101340000B400BB1012000E0002070470146886887
:1013500080B2704702460020D3680B400BB10120D9
:1013600000E0002070470146C86880B27047016104
:101370007047416170470AB1016100E04161704707
:10138000C16070474FF480320A438261816182619B
:1013900082698269704702460020434B18684FF605
:1013A0008073184040EA021008433F4B18607047B2
:1013B0003E49C8617047F0B50A4600230024002169
:1013C000002500F00046B6F1004F02D1364EF1691B
:1013D00001E0354E7168C0F3034583B200F4401656
:1013E000B6F5401F08D121F070612F4E766826F0C7
:1013F00070662D4F7E6012E000F48016B6F5801FF7
:1014000006D1032606FA05F4A14341F0706106E017
:10141000460D360103FA06F6B14341F0706122B180
:10142000460D360103FA06F6314300F00046B6F1E8
:10143000004F02D11C4EF16101E01B4E7160F0BD06
:1014400030B500228B071C0F0F2303FA04F2164B52
:1014500008338C1053F824309343134C08348D1008
:1014600044F8253023468C1053F824308C07240F81
:1014700000FA04F423430C4C08348D1044F8253052
:1014800030BD0A49DC3108607047000000080140A7
:10149000000C014000100140001401400018014000
:1014A000001C0140002001400000014000002042DB
:1014B000DF48006840F00100DD49086008464068E8
:1014C000DC490840DA49486008460068DA490840C3
:1014D000D74908600846006820F480200860084664
:1014E000406820F4FE0048604FF41F008860704799
:1014F000CF49096821F48031CD4A1160114609684D
:1015000021F480211160B0F5803F03D0B0F5802F29
:101510000ED106E0C649096841F48031C44A116021
:1015200007E0C349096841F4A021C14A116000E005
:1015300000BF00BF704710B5014600220023002005
:101540004A11012A02D1BA4C236806E0022A02D1CC
:10155000B74C236A01E0B64C636A01F01F02012414
:1015600094401C400CB1012000E0002010BD38B5B3
:10157000002000900024002500BF3120FFF7DBFF92
:1015800005460098401C00900098B0F5A06F01D06F
:10159000002DF2D03120FFF7CEFF08B1012400E08A
:1015A0000024204638BD01460020A14A106820F0E2
:1015B000F80040EAC10010607047A0490860704719
:1015C000024600209A4B586820F47C1042EA01033E
:1015D0001843974B58607047984908667047014612
:1015E0000020934A506820F0030008435060704781
:1015F0008F48406800F00C007047014600208C4A7C
:10160000506820F0F0000843506070470146002009
:10161000874A506820F4E0600843506070470146F4
:101620000020834A506820F4605040EAC1005060B6
:10163000704729B17E4A527A02437D4B5A7204E0C8
:101640007B4A527A82437A4B5A7270477B49D8312F
:101650000860704701460020754A506820F44040F9
:101660000843506070470021714A20321170704A5F
:1016700082F82010012802D004280AD104E00121B8
:101680006B4A2032117005E00521694A2032117041
:1016900000E000BF00BF70476949086070476449B7
:1016A000096A0143624A116270476549443908601A
:1016B000704730B500210022002400235C4D6D6886
:1016C00005F00C0121B1042905D0082923D105E03A
:1016D0005C4D056022E05B4D05601FE0544D6D6878
:1016E00005F47012524D6D6805F48034022505EB47
:1016F00092421CB9544D554305600BE04C4D6D684A
:1017000005F400351DB1504D5543056002E04D4DC7
:101710005543056002E04B4D056000BF00BF444DDE
:101720006D6805F0F0010909484D6B5C0568DD4006
:1017300045603F4D6D6805F4E061090A434D6B5CFF
:101740004568DD4085603A4D6D6805F46051C90A11
:101750003E4D6B5C4568DD40C560354D6D6805F4F8
:101760004041890B3A4D6B5CC568B5FBF3F50561EB
:1017700030BD29B12E4A526902432D4B5A6104E013
:101780002B4A526982432A4B5A61704729B1284A31
:1017900092690243264B9A6104E0254A926982438A
:1017A000234B9A61704729B1214AD2690243204BE9
:1017B000DA6104E01E4AD26982431D4BDA61704748
:1017C00029B11B4AD2680243194BDA6004E0184A77
:1017D000D2688243164BDA60704729B1144A126905
:1017E0000243134B1A6104E0114A12698243104B01
:1017F0001A61704712494039086070470F49C86440
:1018000070470B49C87170470948406A40F08070C2
:1018100007494862704701460020054A92680A401D
:101820000AB1012000E0002070470149887270472A
:10183000001002400000FFF8FFFFF6FE00004242E9
:101840008004424200127A0000093D00B5000020E9
:10185000C500002010B50446FB48844209D101218F
:101860008803FFF7ADFF00214FF48040FFF7A8FF8A
:1018700032E0F648844209D101214804FFF7ADFF68
:1018800000214FF40030FFF7A8FF25E0F048844224
:1018900009D101218804FFF7A0FF00214FF4802027
:1018A000FFF79BFF18E0EB48844209D10121C804EF
:1018B000FFF793FF00214FF40020FFF78EFF0BE0AE
:1018C000E548844208D101210805FFF786FF002181
:1018D0004FF48010FFF781FF10BD2DE9F04786B06F
:1018E00005460E460024A24600BFA1460027B08947
:1018F00000B100BF2F462C8A4CF6FF700440F088E0
:1019000004432C82AC894EF6F3100440B088318930
:101910000843718908430443AC81AC8A4FF6FF4009
:101920000440B0890443AC8201A8FFF7C2FEC64858
:10193000874202D1DDF810A001E0DDF80CA0A889F3
:1019400000F4004040B10AEBCA0000EB0A10316815
:101950004900B0FBF1F807E00AEBCA0000EB0A10FF
:1019600031688900B0FBF1F86420B8FBF0F00401A5
:101970002009642101FB1089A88900F4004040B1CE
:10198000322000EBC900B0FBF1F000F00700044387
:1019900008E0322000EB09106421B0FBF1F000F008
:1019A0000F0004432C8106B0BDE8F0874FF41651B8
:1019B000016000218180C18001810C2141810021D1
:1019C0008181704710B502460020108A4FF2FF0354
:1019D00018400B884C8823438C882343CC882343AE
:1019E0001843108210BD0021018041808180C18098
:1019F000704721B1828942F40052828104E08289D9
:101A00004DF6FF731A4082817047F0B503460024FB
:101A100000260025002040F66A17B94200D100BF19
:101A20001846C1F3421401F01F06012707FA06F514
:101A3000012C01D10C3004E0022C01D1103000E067
:101A400014301AB107682F43076002E00768AF43FC
:101A50000760F0BD1AB1838A0B43838202E0838A58
:101A60008B4383827047028A4FF6F0731A400282DA
:101A7000028A0A430282704782894FF2FF731A403A
:101A8000828182890A438281704721B1828942F032
:101A90000202828104E082894FF6FD731A4082813E
:101AA0007047028A4FF6DF731A400282028A0A43A5
:101AB0000282704721B1028A42F48042028204E02D
:101AC000028A4BF6FF731A4002827047C1F3080284
:101AD0008280704701468888C0F30800704781897A
:101AE00041F0010181817047028BD2B20283028BE7
:101AF00042EA012202837047028B02F47F42028392
:101B0000028B0A430283704721B1828A42F020028D
:101B1000828204E0828A4FF6DF731A408282704725
:101B200021B1828A42F01002828204E0828A4FF65A
:101B3000EF731A408282704721B1828A42F0080214
:101B4000828204E0828A4FF6F7731A4082827047DD
:101B500021B1828942F40042828103E08289C2F38A
:101B60000E028281704721B1828A42F40062828231
:101B700004E0828A4FF2FF731A4082827047828AA1
:101B80004FF6FB731A408282828A0A438282704730
:101B900021B1828A42F00202828204E0828A4FF6F8
:101BA000FD731A408282704702460020B1F5007F23
:101BB00000D100BF13880B400BB1012000E00020D2
:101BC000704701F40072B2F5007F00D100BFCA4334
:101BD0000280704770B502460024002300250020D3
:101BE00040F66A16B14200D100BFC1F3421501F0C0
:101BF0001F03012606FA03F3012D02D19689334013
:101C000006E0022D02D1168A334001E0968A334065
:101C10000C12012606FA04F41688344013B10CB1F4
:101C2000012000E0002070BD10B50022002340F626
:101C30006A14A14200D100BF0A1201249440A3B249
:101C4000DC43048010BD0000003801400044004027
:101C500000480040004C0040005000403149014322
:101C6000314A1160704770B5002100230F22C478FB
:101C700004B32D4C246804F4E064C4F5E064210A44
:101C8000C1F10403CA40447804FA03F18478144093
:101C900021430901254C0678A155047804F01F055D
:101CA0000124AC4005786D11AD0005F1E025C5F8C3
:101CB000004109E0047804F01F050124AC401C4DEC
:101CC0000678761145F8264070BD1A4A0A4002434C
:101CD000154B1B1F1A60704739B1134A121D126849
:101CE0000243114B1B1D1A6006E00F4A121D1268B9
:101CF00082430D4B1B1D1A607047042808D14FF01A
:101D0000E021096941F004014FF0E022116107E090
:101D10004FF0E021096921F004014FF0E022116148
:101D2000704700000000FA050CED00E000E400E060
:101D300080E100E080FFFF1F10B50446FE488442AA
:101D400008D10121C014FFF73BFD0021E014FFF78B
:101D500037FDC4E0B4F1804F08D101210846FFF7F8
:101D60003CFD00210120FFF738FDB8E0F348844234
:101D700008D101210220FFF730FD00210220FFF7EA
:101D80002CFDACE0EE48844208D101210420FFF78D
:101D900024FD00210420FFF720FDA0E0E948844253
:101DA00008D101210820FFF718FD00210820FFF7C6
:101DB00014FD94E0E448844208D101211020FFF78B
:101DC0000CFD00211020FFF708FD88E0DF48844269
:101DD00008D101212020FFF700FD00212020FFF77E
:101DE000FCFC7CE0DA48844208D101214014FFF772
:101DF000E7FC00216014FFF7E3FC70E0D548844263
:101E000009D10121C804FFF7DBFC00214FF40020B9
:101E1000FFF7D6FC63E0D048844209D101210805D0
:101E2000FFF7CEFC00214FF48010FFF7C9FC56E00D
:101E3000CA48844209D101214805FFF7C1FC0021AD
:101E40004FF40010FFF7BCFC49E0C548844208D1BC
:101E500001214020FFF7C1FC00214020FFF7BDFC1D
:101E60003DE0C048844208D101218020FFF7B5FC45
:101E700000218020FFF7B1FC31E0BB48844208D14B
:101E800001218015FFF7A9FC0021A015FFF7A5FC93
:101E900025E0B648844209D101210804FFF790FCEF
:101EA00000214FF48030FFF78BFC18E0B0488442EB
:101EB00009D101214804FFF783FC00214FF40030D1
:101EC000FFF77EFC0BE0AB48844208D10121880477
:101ED000FFF776FC00214FF48020FFF771FC10BD66
:101EE00000220288944B98420ED0994B98420BD016
:101EF000B0F1804F08D0914B984205D0904B98425A
:101F000002D0904B984204D14FF68F731A404B8801
:101F10001A438D4B984207D08C4B984204D04FF611
:101F2000FF431A40CB881A4302808B8883850B8835
:101F30000385814B98420BD0854B984208D08B4B40
:101F4000984205D08A4B984202D08A4B984201D1E0
:101F50000B7A038601238382704770B50024002228
:101F60000023058C4FF6FE7635400584028C83886D
:101F7000048B4FF68F752C40B51E2C400D882C43DA
:101F8000751E2A400D892A434D882A436A4DA8426E
:101F90000BD06F4DA84208D0744DA84205D0744DA7
:101FA000A84202D0734DA84213D14FF6F7752A40CC
:101FB0004D892A434FF6FB752A408D882A434FF6F8
:101FC000FF652B404FF6FF552B408D892B43CD8964
:101FD0002B4383800483CD888586028470BD70B5D1
:101FE000002400220023058C4FF6EF76354005844F
:101FF000028C8388048B48F6FF752C404FF6FF4512
:102000002C400D884FF6FF7606EA05252C434FF647
:10201000DF752A400D8906EA05152A434D8806EA30
:1020200005152A43444DA84202D0494DA8421DD16E
:102030004FF67F752A404D894FF6FF7606EA051563
:102040002A434FF6BF752A408D8806EA05152A43B4
:102050004FF6FF352B404FF2FF752B408D8906EA76
:1020600085052B43CD8906EA85052B4383800483B0
:10207000CD880587028470BD70B50024002200233E
:10208000058C4FF6FF6635400584028C8388848B6F
:102090004FF68F752C404FF6FC752C400D882C4365
:1020A0004FF6FF552A400D894FF6FF7606EA0525C3
:1020B0002A434D8806EA05252A431F4DA84202D02F
:1020C000234DA8421DD14FF2FF752A404D894FF68E
:1020D000FF7606EA05252A434FF6FF352A408D880C
:1020E00006EA05252A434EF6FF752B404DF6FF758F
:1020F0002B408D8906EA05152B43CD8906EA051587
:102100002B4383808483CD888587028470BD70B51E
:10211000002200230024058C4EF6FF76354005840E
:10212000038C8488828B48F6FF752A404FF6FF4562
:102130002A400D8820E00000002C014000040040EF
:1021400000080040000C0040001000400014004057
:1021500000340140004C0140005001400054014057
:1021600000180040001C00400020004000400140DA
:1021700000440140004801404FF6FF7606EA05257D
:102180002A434DF6FF752B400D8906EA05352B4392
:102190004D8806EA05352B43FA4DA84202D0FA4D88
:1021A000A84208D14BF6FF752C408D894FF6FF767B
:1021B00006EA85152C4384808283CD88A0F84050A0
:1021C000038470BD828B4FF2FF331A408283828B6F
:1021D0004FF6FF7303EA01231A4382837047F0B579
:1021E0000C461546002200210026078C4EF6FF7C87
:1021F00007EA0C070784828B018C4FF6FF7707EA0A
:10220000043640F6FF473A404FF6FF7707EA0527C6
:102210003A434FF6FF7707EA03373A43D94FB842BC
:102220000ED0D94FB8420BD0B0F1804F08D0D74F65
:10223000B84205D0D64FB84202D0D64FB84206D1E8
:102240004DF6FF77394046F48057394305E047F6AD
:10225000FF57394044F48057394382830184F0BDED
:10226000828B4FF6F3731A408283828B0A438283F8
:102270007047F0B50C461546002200210026078C59
:102280004FF6FF6C07EA0C070784828B018C4FF630
:10229000FF7707EA04264FF60C773A404FF6FF77B0
:1022A00007EA03172F433A43B64FB8420ED0B64F52
:1022B000B8420BD0B0F1804F08D0B44FB84205D02F
:1022C000B34FB84202D0B34FB84206D14FF6FF57D2
:1022D000394046F48077394305E04FF2FF573940E3
:1022E00044F48077394382830184F0BD028B4FF23E
:1022F000FF331A400283028B4FF6FF7303EA012378
:102300001A4302837047F0B50C461546002200219F
:102310000026078C4FF6EF7C07EA0C070784028B38
:10232000018C4FF6FF7707EA041640F6FF473A4064
:102330004FF6FF7707EA03373A434FF6FF7707EA8E
:1023400005273A438F4FB8420ED08F4FB8420BD07B
:10235000B0F1804F08D08D4FB84205D08C4FB842B5
:1023600002D08C4FB84206D14FF6DF77394046F0A5
:102370001007394305E04FF65F77394044F0100706
:10238000394302830184F0BD028B4FF6F3731A4088
:102390000283028B0A4302837047F0B50C46154650
:1023A00000220021068C4FF6FE773E400684028B09
:1023B000018C4FF60C7632407E1C06EA03162E4343
:1023C0003243704EB0420ED06F4EB0420BD0B0F1DF
:1023D000804F08D06D4EB04205D06D4EB04202D055
:1023E0006C4EB04206D14FF6FD76314044F0010606
:1023F000314305E04FF6F576314044F001063143B4
:1024000002830184F0BD70B505460C465D488542E7
:102410000ED05D4885420BD0B5F1804F08D05B48A7
:10242000854205D05A48854202D05A48854200D19B
:1024300000E000BF208850B92389A288618828461F
:10244000FFF7ABFFE1882846FFF79EFF25E02088D5
:1024500004280AD12389A28861882846FFF753FF00
:10246000E1882846FFF742FF17E0208808280AD1B4
:102470002389A28861882846FFF7FBFEE188284669
:10248000FFF7EEFE09E02389A28861882846FFF75E
:10249000A6FEE1882846FFF795FE70BD2DE9F041C4
:1024A00005460C4600260127608808B9022600E090
:1024B0000026A088012801D1022700E001272088FA
:1024C000A0B92389A28861882846FFF766FFE188C2
:1024D0002846FFF759FF23893A4631462846FFF739
:1024E00012FFE1882846FFF701FF13E02389A28845
:1024F00061882846FFF707FFE1882846FFF7F6FEC8
:1025000023893A4631462846FFF747FFE1882846A7
:10251000FFF73AFFBDE8F0810A884B881A438B88A1
:102520001A43CB881A430B891A434B891A438B8968
:102530001A43A0F8442070474FF6FF7181800021B4
:102540000180C1804180017270470021018041807B
:102550008180C180018141818181C18170470021D9
:1025600001804180012181800021C180018170476B
:102570000021018041808180C18001814181818170
:1025800070470000002C014000340140000400406E
:1025900000080040000C004021B1028842F0010216
:1025A000028004E002884FF6FE731A4002807047F2
:1025B00031B1B0F8442042F40042A0F8442005E0D4
:1025C000B0F84420C2F30E02A0F8442070471AB1BC
:1025D00083890B43838102E083898B438381704726
:1025E0008182704741EA0203A0F8483070471AB16F
:1025F00083890B43838102E083898B438381704706
:1026000001894FF6F8721140018170470A46002196
:1026100001894FF68F73194011430181704730B51E
:1026200004460D4629462046FFF7F0FF208940F07A
:102630000700208130BD2DE9F04104460D461646C5
:102640001F46602D06D13B46012231462046FFF74A
:102650005AFE05E03B46012231462046FFF79DFE2B
:1026600029462046FFF7D2FF208940F0070020814D
:10267000BDE8F08130B50C4600210189C9B24FF6A2
:10268000FF7505EA0325154325432943018130BD24
:102690002DE9F04105460E4617469846002443466C
:1026A0003A4631462846FFF7E5FF2C894FF6F87089
:1026B000044044F007044FF68F70044044F0700467
:1026C0002C81BDE8F081F0B504460D4616461F4644
:1026D0003B46324629462046FFF7CCFF208940F48E
:1026E00080402081F0BD0185828270470A4600212A
:1026F00001884FF68F731940114301807047F0B580
:102700000C4615461E460021002200230189028B3B
:10271000038C4FF6F877394021434FF6FC473A4097
:1027200040F201173A434FF6DD773B404FF6FF7713
:1027300007EA06172F433B43018102830384F0BD60
:102740000A460021018B4FF68F7319401143018314
:1027500070470A460021018B48F6FF7319404FF677
:10276000FF7303EA02231943018370470A460021DD
:10277000818B4FF68F7319401143818370470A464E
:102780000021818B48F6FF7319404FF6FF7303EA6F
:10279000022319438183704721B1028842F08002ED
:1027A000028004E002884FF67F731A40028070476F
:1027B00021B1828842F00402828004E082884FF6D0
:1027C000FB731A408280704721B1828842F0080270
:1027D000828004E082884FF6F7731A408280704747
:1027E00021B1828842F00102828004E082884FF6A3
:1027F000FE731A40828070470A460021018B4FF613
:10280000F77319401143018370470A460021018B79
:102810004FF2FF7319404FF6FF7303EA0223194387
:10282000018370470A460021818B4FF6F7731940E8
:102830001143818370470A460021818B4FF2FF7359
:1028400019404FF6FF7303EA02231943818370474F
:102850000A460021018B4FF6FB7319401143018397
:1028600070470A460021018B4FF6FF3319404FF69F
:10287000FF7303EA02231943018370470A460021CC
:10288000818B4FF6FB7319401143818370470A46D1
:102890000021818B4FF6FF3319404FF6FF7303EA97
:1028A00002231943818370470A460021018B4FF6AA
:1028B0007F7319401143018370470A460021018B41
:1028C000C1F30E014FF6FF7303EA0223194301839C
:1028D00070470A460021818B4FF67F7319401143E0
:1028E000818370470A460021818BC1F30E014FF6A8
:1028F000FF7303EA02231943818370470A460021CC
:10290000018C4FF6FD7319401143018470470A464C
:102910000021018C4FF6F773194011430184704771
:102920000A460021018C4FF6DF7319404FF6FF7302
:1029300003EA02131943018470470A460021018CFF
:102940004FF67F7319404FF6FF7303EA02131943E2
:10295000018470470A460021018C4FF6FF5319404D
:102960004FF6FF7303EA02231943018470470A46B6
:102970000021018C4FF2FF7319404FF6FF7303EAF9
:1029800002231943018470470A460021018C4DF649
:10299000FF7319404FF6FF7303EA023319430184B2
:1029A000704730B5002301248C40A3B2048C9C43B3
:1029B0000484048C02FA01F5ADB22C43048430BDCA
:1029C00030B5002304248C40A3B2048C9C430484BF
:1029D000048C02FA01F5ADB22C43048430BD70B50D
:1029E0000346002000241846183001258D40ACB263
:1029F0001D8CA5431D8409B1082909D100EB610094
:102A0000056825F0700505600568154305600EE052
:102A10000D1FC5F34E052844056825F4E045056003
:102A200005684FF6FF7606EA02263543056070BD5D
:102A300021B1028842F00202028004E002884FF6CF
:102A4000FD731A400280704721B1028842F00402EF
:102A5000028004E002884FF6FB731A400280704740
:102A600021B1828842F08002828004E082884FF6A1
:102A70007F731A408280704702884FF6F7731A40BE
:102A8000028002880A430280704782884FF68F7363
:102A90001A40828082880A438280704702894FF6FA
:102AA000F8731A40028102890A4302817047028941
:102AB0004FF67F731A40028102890A4302817047F0
:102AC0008184704781857047818670470187704790
:102AD00081877047A0F84010704702884FF6FF4387
:102AE0001A40028002880A43028070470146888E9D
:102AF00070470146088F70470146888F704701462E
:102B0000B1F8400070470146888C70470146088D37
:102B1000704702460020138A0B400BB1012000E0F1
:102B200000207047CA430282704730B50246002039
:102B300000230024158A05EA0103958905EA0104AA
:102B400013B10CB1012000E0002030BDCA43028265
:102B5000704770477047704770477047754600F080
:102B60002BF8AE4605006946534620F0070085461F
:102B700018B020B5FEF7DCFABDE820404FF00006A3
:102B80004FF000074FF000084FF0000B21F0070155
:102B9000AC46ACE8C009ACE8C009ACE8C009ACE898
:102BA000C0098D46704710B50446AFF3008020463B
:102BB000BDE81040FDF703BB004870475C020020F1
:102BC0004FEA1153A3F58063D3F11E03A8BFD3F1DD
:102BD000200C08DB4FF0004242EAC12252EA505278
:102BE00032FA03F0704709420BD4102BC4BF002007
:102BF000704703F5787CBCF1FF3F05D04FF0FF3004
:102C000070474FF00000704770B500F0C3F800BF88
:102C10004992248000207047F0E7B0FA80F310FA60
:102C200003F10AD0C3F11D0303F580634FEA41505D
:102C30004FEA035202EBD12170474FF0000070477A
:102C4000DFF848C170B51CEA111E1EBF1CEA13153F
:102C50009EEA0C0F95EA0C0F00F06F8081EA0304E6
:102C600023EA4C134EEAD47E21EA4C1141F4801140
:102C700043F48013AE44A1FB024CA0FB0365AEF10C
:102C80007F7E361955EB0C05A1FB034C4CF100037C
:102C9000A0FB021C16EB0C06654153F10003094230
:102CA00018BF46F0010613F4007F0BD14FEA033141
:102CB0004FEA0530340341EA155140EA16506FF0EF
:102CC00003020AE04FEAC3214FEAC520F40241EAB9
:102CD000555140EA56506FF0020202EB2E4201EBD2
:102CE000025585EACE710AD05FEA440C18BF24F081
:102CF000004450F1000041F1000120EAD47040F29C
:102D0000FE7C624500D270BDA84214BF4FF08044E3
:102D10004FF04044002E08BF0024BEF1806FA8BFD2
:102D2000A1F1C041BDE8704080F282804FF0000008
:102D300001F1C04101F0004170479EEA0C0F0CEA1E
:102D4000131518BF95EA0C0F06D04FF0000081EA6A
:102D5000030E0EF0004170BD00F01CF88900013E2A
:102D600000F007B800F009B84FEA430C5FEA5C5C7A
:102D700008D081EA030100F05BB84FEA410C5FEA3A
:102D80005C5CF6D14FF00000014970470000FF077E
:102D90000000F87F0EF1020E2EF0030E5EF8046BB9
:102DA000364205D4012A43EB030515F5001F12D85E
:102DB000012841EB010C1CF5001F0CD80ED14FEA85
:102DC000D17C15F5001F0CEB4C0C0CF1020C08BF6C
:102DD0004CEBD37C04E04FF0080C01E04FEAD37CCD
:102DE0000CEB4C0526FA05F606F00706B6F1040CC6
:102DF00006D20EEB860CBDE870404CF0010C60472B
:102E0000DFE80CF0090B02024FF000414FF0000028
:102E1000A1F5002170BD19461046012851EB0104AF
:102E200018BFD4F5001484BF002001F0004170BD2C
:102E30000808A0F500114FEA310170475C2E000828
:102E400000000020CC0000006C010008282F0008C2
:102E5000CC000020F40700008801000800000000FA
:102E6000000000000000000000A24A040000000072
:102E70000000000001020304060708091B07010007
:102E8000231D1B080100241D32003C0050006E0071
:102E90008C00B400E600180154019001D6011C0218
:102EA0006C02BC0216036603C00310046A04C40467
:102EB0001405BE05040654069A06D60612074407F2
:102EC00076079E07BC07DA07EE07F8072200000026
:102ED00000000000010101010000000000000000EE
:102EE000000000000000010101010100FFFFFFFFE1
:102EF000FFFFFFFFFFFF00000000000000000000D8
:102F00000000001B090100251D1B090111361D00D1
:102F10000000000000010203040102030406070888
:082F200009020406080000008C
:0400000508000131BD
:00000001FF
